:100000000C947B000C94A3000C94A3000C94A3000C
:100010000C94A3000C94A3000C94A3000C94A300D4
:100020000C94A3000C94A3000C94A3000C94680CF3
:100030000C94A3000C94A3000C94A3000C94A300B4
:100040000C941E0C0C94A3000C94EC0B0C94C60B9B
:100050000C94A3000C94A3000C94A3000C94A30094
:100060000C94A3000C94A3004E414E494E495459A0
:10007000494E46CDCCCC3D0AD7233C17B7D1387773
:10008000CC2B329595E6241FB14F0A000020410089
:1000900000C84200401C4620BCBE4CCA1B0E5AAED3
:1000A000C59D740000000800020100000304070061
:1000B0000000000000000000000000250028002BC8
:1000C0000000000000240027002A000404040404A7
:1000D00004040402020202020203030303030301F5
:1000E00002040810204080010204081020010204CC
:1000F00008102000240D11241FBECFEFD8E0DEBF72
:10010000CDBF11E0A0E0B1E0E6EFF8E202C005905B
:100110000D92A63FB107D9F723E0A6EFB1E001C0E9
:100120001D92A732B207E1F710E0CBE7D0E004C0A0
:100130002197FE010E945414CA37D107C9F70E94C3
:100140004D0E0C9479140C94000090E0FC01E152E7
:10015000FF4F249185539F4FFC018491882399F090
:1001600090E0880F991FFC01EF53FF4FA591B491C8
:10017000FC01E954FF4F859194918FB7F894EC916D
:10018000E22BEC938FBF08958F929F92AF92BF9214
:10019000FF920F931F93CF93DF93F0900A032BE00E
:1001A0002F1508F44CC020910C0308E512E0021B47
:1001B000110927FD1395000F111F000F111F20912A
:1001C0000B03C8E8D0E0C21BD10927FDD395CC0FA3
:1001D000DD1FCC0FDD1F4E010D2E000CAA08BB0841
:1001E0009801012E000C440B550B281939094A09B6
:1001F0005B09DC010E94A51224EB30E040E050E0F6
:100200000E947B12820E931EA41EB51E8C169D06A4
:100210002CF0E801801691060CF4E4012297CC0F33
:10022000DD1F2FB7F8948F2D90E0FC01EE0FFF1F1C
:10023000E80FF91FE755FD4FD283C1832FBFDF9130
:10024000CF911F910F91FF90BF90AF909F908F9093
:100250000895AF92BF92CF92DF92EF92FF920F93E9
:100260001F93CF93DF936C017B018B01040F151F4C
:10027000EB015E01AE18BF08C017D10759F06991B4
:10028000D601ED91FC910190F081E02DC601099518
:10029000892B79F7C501DF91CF911F910F91FF90C5
:1002A000EF90DF90CF90BF90AF900895FC01538DF9
:1002B000448D252F30E0842F90E0821B930B541740
:1002C00010F0CF96089501970895FC01918D828DCD
:1002D000981761F0A28DAE0FBF2FB11D5D968C9166
:1002E000928D9F5F9F73928F90E008958FEF9FEFA5
:1002F0000895FC01918D828D981731F0828DE80F61
:10030000F11D858D90E008958FEF9FEF0895FC011A
:10031000918D228D892F90E0805C9F4F821B9109E7
:100320008F73992708958CE092E00E94870121E065
:10033000892B09F420E0822F089580E090E0892B3A
:1003400029F00E94930181110C9400000895FC0192
:10035000A48DA80FB92FB11DA35ABF4F2C91848D26
:1003600090E001968F739927848FA689B7892C9383
:10037000A089B1898C91837080648C93938D848DD6
:10038000981306C00288F389E02D80818F7D8083D9
:100390000895EF92FF920F931F93CF93DF93EC0199
:1003A00081E0888F9B8D8C8D98131AC0E889F9891C
:1003B000808185FF15C09FB7F894EE89FF8960831F
:1003C000E889F98980818370806480839FBF81E0A0
:1003D00090E0DF91CF911F910F91FF90EF900895E2
:1003E000F62E0B8D10E00F5F1F4F0F731127E02EBD
:1003F0008C8D8E110CC00FB607FCFACFE889F989F5
:10040000808185FFF5CFCE010E94A701F1CFEB8D52
:10041000EC0FFD2FF11DE35AFF4FF0829FB7F894C8
:100420000B8FEA89FB8980818062CFCFCF93DF93E6
:10043000EC01888D8823B9F0AA89BB89E889F989FC
:100440008C9185FD03C0808186FD0DC00FB607FC31
:10045000F7CF8C9185FFF2CF808185FFEDCFCE0164
:100460000E94A701E9CFDF91CF91089590E0FC01B0
:10047000ED55FF4F2491FC01E152FF4F3491FC01F7
:10048000E553FF4FE491EE23C9F0222339F02330E6
:1004900001F1A8F4213019F1223029F1F0E0EE0F3A
:1004A000FF1FE954FF4FA591B4918FB7F894EC91D9
:1004B000611126C030953E233C938FBF08952730AD
:1004C000A9F02830C9F0243049F7809180008F7D51
:1004D00003C0809180008F7780938000DFCF84B548
:1004E0008F7784BDDBCF84B58F7DFBCF8091B0004B
:1004F0008F778093B000D2CF8091B0008F7DF9CFFD
:100500003E2BDACF3FB7F894809108029091090210
:10051000A0910A02B0910B0226B5A89B05C02F3FFF
:1005200019F00196A11DB11D3FBFBA2FA92F982F19
:100530008827BC01CD01620F711D811D911D42E014
:10054000660F771F881F991F4A95D1F708958F92DC
:100550009F92AF92BF92CF92DF92EF92FF926B0188
:100560007C010E9482024B015C01C114D104E104B0
:10057000F104B9F00E948202681979098A099B097D
:10058000683E73408105910580F321E0C21AD108CD
:10059000E108F10888EE880E83E0981EA11CB11CCA
:1005A000E4CFFF90EF90DF90CF90BF90AF909F90FF
:1005B0008F900895089590E080E008950F931F9321
:1005C000CF93DF93EC018B0188859985029749F4DD
:1005D0006130710509F436C04CF560E00115110574
:1005E00091F188859985049749F40130110509F442
:1005F00051C09CF50115110509F43BC0888599850A
:10060000059709F0C5C00A30110508F0C1C0F8010E
:10061000E45FFC4F0C9454145E0368037603880374
:10062000A003A203A803B203C003C603623071058E
:1006300091F060E003301105A1F68C850E9436022E
:1006400060E005C061E08C850E94360261E08E8525
:100650000E943602C6CF61E0F0CF0230110501F1F1
:100660000330110559F661E08C850E94360260E086
:100670001CC061E08C850E94360260E08E850E947D
:10068000360261E088890E94360260E08A890E9411
:100690003602B4CF60E08C850E94360261E0EECF76
:1006A00060E08C850E94360261E08E850E943602F1
:1006B00060E088890E94360261E0E8CF60E08C85C6
:1006C0000E94360261E08E850E94360261E009C018
:1006D00060E08C850E94360261E08E850E943602C1
:1006E00060E088890E94360260E00DC060E08C8581
:1006F0000E94360261E08E850E94360260E08889A1
:100700000E94360261E08A890E94360261E011C0CF
:1007100060E08C850E94360261E08E850E94360280
:1007200060E088890E94360261E08A890E94360270
:1007300060E08C89DF91CF911F910F910C9436026C
:1007400061E0E7CF61E08C850E94360260E0E5CF92
:1007500061E08C850E94360260E08E850E94360240
:1007600061E0DFCF61E08C850E94360260E08E851B
:100770000E94360261E088890E94360260E0D5CF8F
:1007800061E08C850E94360260E09DCF60E0F9CF89
:10079000DF91CF911F910F9108954F925F926F92C9
:1007A0007F928F929F92AF92BF92CF92DF92EF9201
:1007B000FF920F931F93CF93DF93EC018B0177FF91
:1007C00004C000271127061B170B161617060CF07E
:1007D0004AC081E090E09983888384E0E82EF12C80
:1007E0009AE0C92ED12C0115110509F44EC00E94C2
:1007F00082028E889F88A88CB98C2B013C014818F6
:1008000059086A087B088A809B80AC80BD804814A8
:1008100059046A047B0438F36E8B7F8B888F998F21
:100820008A859B85288139812130310511F5019612
:100830009B878A872E813F818217930711F41B863D
:100840001A86015011098A859B8528853985B6014C
:100850002530310509F0B7010E944014BC01CE01DA
:100860000E94DE02C0CF672B09F4B7CF198218822D
:10087000B4CF892B21F48E819F819B878A878A85BB
:100880009B8501979B878A87DCCFDF91CF911F9152
:100890000F91FF90EF90DF90CF90BF90AF909F901F
:1008A0008F907F906F905F904F900895FB01019023
:1008B0000020E9F73197AF01461B570BDC01ED91A2
:1008C000FC910280F381E02D09948F929F92AF9268
:1008D000BF92EF92FF920F931F93CF93DF93CDB709
:1008E000DEB7A1970FB6F894DEBF0FBECDBF7C0177
:1008F000FA01CB0119A2223008F42AE08E010F5D23
:100900001F4F822E912CB12CA12CBF01A501940167
:100910000E94E412F901CA016A300CF5605DD80149
:100920006E938D01232B242B252B79F790E080E00B
:10093000109721F0BD01C7010E945604A1960FB681
:10094000F894DEBF0FBECDBFDF91CF911F910F9105
:10095000FF90EF90BF90AF909F908F900895695C4B
:10096000DECFCF92DF92EF92FF92CF93DF936B01B6
:100970007C016DE28CE092E00E94C901EC01442709
:100980005527BA014C195D096E097F092AE08CE0F0
:1009900092E00E9465048C0F9D1FDF91CF91FF9024
:1009A000EF90DF90CF900895CF93DF93BC018CE060
:1009B00092E00E945604EC016EE171E08CE092E05E
:1009C0000E9456048C0F9D1FDF91CF9108950C94C7
:1009D00056042F923F924F925F926F927F928F9226
:1009E0009F92AF92BF92CF92DF92EF92FF921F93AE
:1009F000CF93DF93EC016A017B01722EAB0196016C
:100A0000CB01B6010E942F1461E271E0811126C072
:100A100046015701E894B7F82FEF3FEF4FE75FE744
:100A2000C501B4010E942F1481110CC02FEF3FEFBC
:100A30004FE75FE7C501B4010E94541165E271E020
:100A4000181664F02FEF3FEF4FE75FE4C701B601E0
:100A50000E942A141816B4F469E271E0CE01DF9105
:100A6000CF911F91FF90EF90DF90CF90BF90AF900C
:100A70009F908F907F906F905F904F903F902F90BE
:100A80000C9456042FEF3FEF4FE75FECC701B60120
:100A90000E94541187FDE0CF20E030E0A901C7019A
:100AA000B6010E945411312C212C87FF0DC0E88122
:100AB000F9810190F081E02D6DE2CE0109951C01D4
:100AC000F7FAF094F7F8F09410E060E070E080E05E
:100AD0009FE3711641F020E030E040E251E40E94D3
:100AE00082131F5FF6CFA70196010E9416132B01F8
:100AF0003C010E94FB134B015C012AE0BC01A401F4
:100B0000CE010E9465047C01E20CF31C1123E1F18B
:100B1000C501B4010E9459119B01AC01C301B2018E
:100B20000E9415134B015C01E881F9810190F0816D
:100B3000E02D6EE2CE010995E80EF91E115020F16C
:100B400020E030E040E251E4C501B4010E94BA1156
:100B50002B013C010E94FB134B01B12CA12C2AE07C
:100B6000B501A401CE010E946504E80EF91EC5017D
:100B7000B4010E9459119B01AC01C301B2010E9452
:100B800015134B015C01DACFC701DF91CF911F91A3
:100B9000FF90EF90DF90CF90BF90AF909F908F909D
:100BA0007F906F905F904F903F902F90089522E03C
:100BB0000C94E904CF93DF93EC0160E08E810E94F6
:100BC000360261E08E810E94360260E08E810E94D2
:100BD00036028BE891E00197F1F7DF91CF9108950C
:100BE000CF92DF92EF92FF920F931F93CF93DF93F9
:100BF0006C017C0187E0E80EF11CD0E0C0E0062F1C
:100C000010E0B8010C2E02C0759567950A94E2F7C2
:100C10006170F70181917F010E9436022196C430F4
:100C2000D10579F7C601DF91CF911F910F91FF9008
:100C3000EF90DF90CF900C94DA05CF92DF92EF9295
:100C4000FF920F931F93CF93DF93EC01F62E642F47
:100C50008C810E9436028D818F3F19F060E00E94E6
:100C600036020F2D10E08F8584FF25C06E0187E0CE
:100C7000C80ED11CF12CE12CB8010E2C02C07595C8
:100C800067950A94E2F76170F60181916F010E9405
:100C90003602FFEFEF1AFF0A88E0E816F10461F769
:100CA000CE01DF91CF911F910F91FF90EF90DF90D8
:100CB000CF900C94DA05B80184E0759567958A9514
:100CC000E1F7CE010E94F0056F2DCE01DF91CF91AB
:100CD0001F910F91FF90EF90DF90CF900C94F00553
:100CE00040E0682F8DE093E00C941D0681E00E94A7
:100CF00070068BE39FE10197F1F70895CF93DF939F
:100D0000823029F490911C03986090931C03809387
:100D100020031092210380E48093220380E18093DA
:100D2000230380E580932403809111030E94A50092
:100D3000809112038F3F11F00E94A5008091130350
:100D40000E94A500CDE0D3E09E012D50334080915C
:100D50001C0384FD0AC084E090E02196281739071F
:100D60003CF48E810E94A500EFCF88E090E0F5CFA3
:100D70008BE39DE00197F1F760E0809111030E9401
:100D8000360260E0809113030E94360280911203C4
:100D90008F3F19F060E00E94360280911C0384FDB1
:100DA00034C063E08DE093E00E94F005CBE4D6E42C
:100DB000CE010197F1F763E08DE093E00E94F0052A
:100DC0002197F1F763E08DE093E00E94F00583E561
:100DD00092E00197F1F762E08DE093E00E94F00568
:100DE00080911C0380620E94700684E080931D0342
:100DF0008CE00E9470060E94760682E080931E03BB
:100E000086E0DF91CF910C94700680620E9470069C
:100E10008BE496E40197F1F780911C0380620E94B5
:100E2000700683E592E00197F1F780911C038062E0
:100E30000E947006D5CF90912003691710F06FEFD4
:100E4000690FE62FF0E0E35FFC4F9489890F80681B
:100E50000C94700680E590E00E94C40062E370E0AC
:100E600080E090E00E94A70261E080E00E941B0702
:100E70006DE271E08DE093E00C94E7048CE390E088
:100E80000E94C40062E370E080E090E00E94A7024C
:100E900061E080E00E941B0766E371E08DE093E073
:100EA0000C94E70441E00E941D0681E090E0089563
:100EB000CF93DF93CDB7DEB7C855D2400FB6F894C5
:100EC000DEBF0FBECDBF68EC70E080E090E00E9416
:100ED000A70200E010E0312C212C02C0102F01E00D
:100EE0008CE092E00E94870118161906CCF78CE07E
:100EF00092E00E9465018A3019F08D3009F016C425
:100F00002114310409F40DC4E1E0F0E0EC0FFD1F01
:100F1000E20DF31D108290E080E08C010F5F1F4F07
:100F2000E1E0F0E0EC0FFD1FE80FF91F208127340E
:100F300081F034F4243409F05AC30E943E0757C3A9
:100F40002D3409F45AC3253509F051C30E942A07EC
:100F50004EC39C012E5F3F4FC55BDD4F3983288315
:100F6000CB54D240E1E0F0E0EC0FFD1FE00FF11FA9
:100F70008081CF5FDD4F8883C150D240CE5FDD4F8F
:100F80001882C250D240CE018F5F9D4F0E94BD0F8C
:100F9000029708F026C368E570E0EE24E394F12C94
:100FA000EC0EFD1EC55BDD4F88819981CB54D2408C
:100FB000E80EF91EC7010E946E148C0169E570E00D
:100FC000C7010E946E14009709F0F6C1C80101968E
:100FD0000E94B90F162F072FCF5BDD4F8883C154B6
:100FE000D240CE5BDD4F9883C254D2409091FA013B
:100FF000CD5BDD4F9883C354D240A091FB01CC5B05
:10100000DD4FA883C454D240B091FC01CB5BDD4FCF
:10101000B883C554D240E091FD01CA5BDD4FE8833F
:10102000C654D24060E080E00E941B0760E471E09B
:101030008DE093E00E94E704412F502FCF5BDD4FFE
:101040006881C154D240CE5BDD4F7881C254D2401A
:101050008DE093E00E94D70563E471E08DE093E0BA
:101060000E94E70460E088E00E941B0766E471E0EC
:101070008DE093E00E94E704CD5BDD4F4881C354CF
:10108000D240CC5BDD4F5881C454D240CB5BDD4FA6
:101090006881C554D240CA5BDD4F7881C654D240C6
:1010A0008DE093E00E94D70563E471E08DE093E06A
:1010B0000E94E70420E030E04AE755E4612F702FFA
:1010C000CF5BDD4F8881C154D240CE5BDD4F98812C
:1010D000C254D2400E942A1487FFC2C120E030E0EF
:1010E000A901612F702FCF5BDD4F8881C154D240A1
:1010F000CE5BDD4F9881C254D2400E945411181625
:101100000CF0B5C1812E902ECF5BDD4FA880C1546D
:10111000D240CE5BDD4FB880C254D24020E030E0F8
:101120004AE755E4CD5BDD4F6881C354D240CC5BC8
:10113000DD4F7881C454D240CB5BDD4F8881C554EC
:10114000D240CA5BDD4F9881C654D2400E942A1417
:1011500087FF92C120E030E0A901CD5BDD4F6881BF
:10116000C354D240CC5BDD4F7881C454D240CB5BBA
:10117000DD4F8881C554D240CA5BDD4F9881C6548B
:10118000D2400E94541118160CF07DC1CD5BDD4F8A
:10119000C880C354D240CC5BDD4FD880C454D24009
:1011A000CB5BDD4FE880C554D240CA5BDD4FF88091
:1011B000C654D24020E030E040EC50E4B401C50118
:1011C0000E94BA110E94F413072E000C880B990B91
:1011D0000E945B11C35BDD4F688379838A839B83A5
:1011E000CD54D24020E030E040EC50E4B601C701DD
:1011F0000E94BA110E94F413072E000C880B990B61
:101200000E945B11CF5ADD4F688379838A839B8369
:10121000C155D2404090D2025090D3026090D40287
:101220007090D5028090CE029090CF02A090D00214
:10123000B090D102A3019201C35BDD4F6881798137
:101240008A819B81CD54D2400E9415136B017C0191
:1012500020E030E0A9010E942A1418160CF018C1F1
:10126000C701B6010E94F413C95BDD4F688379831F
:101270008A839B83C754D240A5019401CF5ADD4F86
:10128000688179818A819B81C155D2400E94151362
:101290006B017C0120E030E0A9010E942A1418169D
:1012A0000CF0FAC0C701B6010E94F4136B017C0177
:1012B000A3019201C35BDD4F688179818A819B81A3
:1012C000CD54D2400E942A1418160CF0E9C081E0D7
:1012D00090E0CB5ADD4F99838883C555D240A50154
:1012E0009401CF5ADD4F688179818A819B81C155F4
:1012F000D2400E942A1418160CF0DBC0E1E0F0E0A6
:10130000C95ADD4FF983E883C755D240C95BDD4F29
:1013100088819981AA81BB81C754D240812C912CAC
:101320005401412C512C3201C816D906EA06FB069D
:101330000CF0C8C0C95BDD4F88819981AA81BB814F
:10134000C754D240481659066A067B060CF0F3C013
:10135000CB5ADD4F68817981C555D24080EF92E04C
:101360000E94CD038C0C9D1CAE1CBF1CC95BDD4FC5
:1013700088819981AA81BB81C754D2408816990679
:10138000AA06BB0674F0881A990AAA0ABB0AC95AA7
:10139000DD4F68817981C755D24086ED92E00E9489
:1013A000CD0360E070E0CB010E94A7029FEF491AD5
:1013B000590A690A790ABECF01960115110549F546
:1013C0000E94B90FCD5BDD4F6883C354D240CC5B24
:1013D000DD4F7883C454D240CB5BDD4F8883C55446
:1013E000D240CA5BDD4F9883C654D2401091F601BB
:1013F0000091F701F091F801CF5BDD4FF883C15404
:10140000D2402091F901CE5BDD4F2883C254D240F7
:1014100009CE0E94B90FCD5BDD4F6883C354D24023
:10142000CC5BDD4F7883C454D240CB5BDD4F8883E7
:10143000C554D240CA5BDD4F9883C654D240C80120
:1014400001960E94B90F162F072FCF5BDD4F8883BF
:10145000C154D240CE5BDD4F9883C254D240E2CD1E
:10146000812C912C2AE7A22E35E4B32E57CE812C65
:10147000912CA12CB12C52CEC12CD12C8AE7E82E74
:1014800095E4F92E97CEC12CD12CE12CF12C92CEE3
:10149000C701B6019058E6CEC701B601905804CFF7
:1014A000AFEFBFEFCB5ADD4FB983A883C555D2400C
:1014B00016CF2FEF3FEFC95ADD4F39832883C75529
:1014C000D24024CF4C145D046E047F04A4F5C95AA5
:1014D000DD4F68817981C755D24086ED92E00E9448
:1014E000CD03C95BDD4F88819981AA81BB81C75437
:1014F000D240880E991EAA1EBB1E8C149D04AE04F9
:10150000BF0474F08C189D08AE08BF08CB5ADD4F9D
:1015100068817981C555D24080EF92E00E94CD0369
:1015200060E070E0CB010E94A7029FEF491A590AC0
:10153000690A790AC7CF62E370E080E090E00E9418
:10154000A702C35BDD4F88819981AA81BB81CD54FD
:10155000D2408093D2029093D302A093D402B0934E
:10156000D502CF5ADD4F88819981AA81BB81C155AF
:10157000D2408093CE029093CF02A093D002B0933A
:10158000D102812F902FCF5BDD4FA881C154D24073
:10159000CE5BDD4FB881C254D2408093F601909368
:1015A000F701A093F801B093F901CD5BDD4F88817D
:1015B000C354D240CC5BDD4F9881C454D240CB5B46
:1015C000DD4FA881C554D240CA5BDD4FB881C654F7
:1015D000D2408093FA019093FB01A093FC01B09359
:1015E000FD01C55BDD4F08811981CB54D240021546
:1015F00013050CF096C0C80190CCE1E0F0E0EC0FD0
:10160000FD1FE00FF11F2081CF5FDD4F2883C15008
:10161000D240E3E0F0E0EC0FFD1FE80FF91F20815E
:10162000CE5FDD4F2883C250D2408C010C5F1F4F2C
:10163000A4E0B0E0AC0FBD1F8A0F9B1FFC018081AE
:10164000CD5FDD4F8883C350D240CC5FDD4F188221
:10165000C450D240CE018F5F9D4F0E94BD0F823794
:10166000910539F18C32914009F04FC063E570E08B
:1016700081E090E08C0F9D1F800F911F0E946E14DF
:1016800001960E94B90F6B017C0120E030E040EF31
:1016900051E40E945411882309F458CC20E030E032
:1016A00048E452E4C701B6010E94541181119FCF52
:1016B00044CC69E471E08CE092E00E94E704409140
:1016C000F6015091F7016091F8017091F9018CE0F9
:1016D00092E00E94D70562E671E08CE092E00E9401
:1016E000E7044091FA015091FB016091FC01709177
:1016F000FD0122E08CE092E00E94E9046EE171E0DD
:101700008CE092E00E94560472CF6CE671E08CE0AF
:1017100092E00E94E704CE018F5F9D4F0E94D404A7
:1017200066CF87E891E00E94D404D3CB111102C0A8
:10173000002329F0893209F0D3CB10E0D1CB8132DC
:10174000E4F38F32D1F311E0883209F4C9CB8B3343
:1017500009F4C4CB2FEF221621E032062CF08AE8E0
:1017600091E00E94D404E9CF91012F5F3F4F9FE9A0
:10177000980FE1E0F0E0EC0FFD1FE20DF31D9A3150
:1017800008F48052808310E01901AACB1F920F92B7
:101790000FB60F9211242F933F934F935F936F9344
:1017A0007F938F939F93AF93BF93EF93FF938CE0BF
:1017B00092E00E94A701FF91EF91BF91AF919F919D
:1017C0008F917F916F915F914F913F912F910F90EA
:1017D0000FBE0F901F9018951F920F920FB60F9289
:1017E00011242F938F939F93EF93FF93E0911C020B
:1017F000F0911D028081E0912202F091230282FD8E
:101800001BC09081809125028F5F8F7320912602EB
:10181000821741F0E0912502F0E0E45FFD4F958FE3
:1018200080932502FF91EF919F918F912F910F90BF
:101830000FBE0F901F9018958081F4CF1F920F92CA
:101840000FB60F9211242F933F938F939F93AF93D3
:10185000BF938091040290910502A0910602B0917D
:1018600007023091030223E0230F2D3758F501962C
:10187000A11DB11D209303028093040290930502E1
:10188000A0930602B093070280910802909109028A
:10189000A0910A02B0910B020196A11DB11D809387
:1018A000080290930902A0930A02B0930B02BF9121
:1018B000AF919F918F913F912F910F900FBE0F90FD
:1018C0001F90189526E8230F0296A11DB11DD2CFB7
:1018D0001F920F920FB60F9211242F933F934F93A5
:1018E0005F936F937F938F939F93AF93BF93CF93A8
:1018F000DF93EF93FF9380910202C091CD02D0E07D
:1019000087FF24C01092850010928400809102020B
:101910008F5F8093020280910202082E000C990BC7
:101920008C179D0724F4809102028C30C4F18091C1
:10193000840090918500049680349C4908F47AC014
:101940008091840090918500049676C08091020277
:10195000082E000C990B8C179D07C4F6E09102022B
:101960008E2FEE0F990BFC01EE0FFF1FE80FF91FF2
:10197000E755FD4F808186FFC9CFE09102028E2F8F
:10198000EE0F990BFC01EE0FFF1FE80FF91FE75553
:10199000FD4F808160E08F730E943602B7CF2091A7
:1019A000840030918500E09102028E2FEE0F990B9A
:1019B000FC01EE0FFF1FE80FF91FE755FD4F818176
:1019C0009281820F931F9093890080938800E09109
:1019D00002028E2FEE0F990BFC01EE0FFF1FE80F96
:1019E000F91FE755FD4F808186FF11C0E09102028B
:1019F0008E2FEE0F990BFC01EE0FFF1FE80FF91F62
:101A0000E755FD4F808161E08F730E943602FF91A0
:101A1000EF91DF91CF91BF91AF919F918F917F9186
:101A20006F915F914F913F912F910F900FBE0F904B
:101A30001F90189580E49CE990938900809388001A
:101A40008FEF80930202E3CF0F931F93CF93DF9327
:101A500010920F0210920E0288EE93E0A0E0B0E028
:101A60008093100290931102A0931202B09313027C
:101A700084E091E090930D0280930C0285EC90E05D
:101A8000909319028093180284EC90E090931B02CB
:101A900080931A0280EC90E090931D0280931C02C8
:101AA00081EC90E090931F0280931E0282EC90E004
:101AB000909321028093200286EC90E09093230281
:101AC0008093220210922502109226021092270281
:101AD000109228021092100310920F0386E191E0F9
:101AE00090930E0380930D038EE080931103CFEF4C
:101AF000C09312038FE08093130380E1809314035B
:101B000081E18093150382E18093160383E1809342
:101B10001703109218031092190310921A031092CF
:101B20001B0310921C0381E00E947E068091CD026F
:101B30008C3008F0AFC091E0980F9093CD02809365
:101B40000A0390E0FC01EE0FFF1FE80FF91FE755B5
:101B5000FD4F88EB9BE0928381831092FB021092F1
:101B6000FA021092F1021092F00210920603109203
:101B70000703109208031092090302E310E0109388
:101B8000F7020093F60282E090E09093FD028093CA
:101B9000FC0283E090E09093FF028093FE02C4E099
:101BA000D0E0D0930103C093000385E090E09093D0
:101BB00003038093020382E00E94A5008091FE024D
:101BC0000E94A500809100030E94A500809102035D
:101BD0000E94A5001092050310920403D093F9020D
:101BE000C093F8021092E1021092E0021092D70224
:101BF0001092D6021092EC021092ED021092EE02B8
:101C00001092EF021093DD020093DC0289E090E075
:101C10009093E3028093E20288E090E09093E502E3
:101C20008093E40287E090E09093E7028093E602DD
:101C300086E090E09093E9028093E80289E00E94B8
:101C4000A5008091E4020E94A5008091E6020E9416
:101C5000A5008091E8020E94A5001092EB0210926C
:101C6000EA02D093DF02C093DE021092D2021092F9
:101C7000D3021092D4021092D5021092CE0210928A
:101C8000CF021092D0021092D102DF91CF911F911A
:101C90000F910895C0930A0360CF789484B5826051
:101CA00084BD84B5816084BD85B5826085BD85B500
:101CB000816085BD80916E00816080936E0010927E
:101CC00081008091810082608093810080918100F9
:101CD000816080938100809180008160809380008A
:101CE0008091B10084608093B1008091B0008160E8
:101CF0008093B00080917A00846080937A00809114
:101D00007A00826080937A0080917A00816080936B
:101D10007A0080917A00806880937A001092C100E6
:101D2000E0911C02F0911D0282E08083E091180294
:101D3000F09119021082E0911A02F0911B028FECCF
:101D4000808310922402E0912002F091210286E02B
:101D50008083E0911E02F0911F0280818061808368
:101D6000E0911E02F0911F02808188608083E091E3
:101D70001E02F0911F02808180688083E0911E0224
:101D8000F0911F0280818F7D808382E00E947E0619
:101D90000E94760660E085E00E941B0766EA71E01B
:101DA0008DE093E00E94E70480910A038C3008F0F4
:101DB00050C08AE00E94A50080910A03282F30E0DD
:101DC000F901EE0FFF1FE20FF31FE755FD4F908162
:101DD000907C9A60908310920B0310920C032CE07D
:101DE000622F0E943414829FB001112430E020E061
:101DF000AB01420F531FFA01EE0FFF1FE40FF51F57
:101E0000E755FD4F908196FD16C02F5F3F4F2C3058
:101E1000310571F781110FC01092800082E080932C
:101E200081001092850010928400B19A80916F0019
:101E3000826080936F00E0910A038E2F90E0FC0196
:101E4000EE0FFF1FE80FF91FE755FD4F80818064FB
:101E500080838CE390E00E94C40068EE73E080E031
:101E600090E00E94A7020E9476062091F60230912F
:101E7000F702032E000C440B550BC12C87E8D82E1B
:101E800083E9E82E83E0F82EC701B6010E947B1299
:101E90009AEF892E912CA12CB12CCA01B901A50170
:101EA00094010E947B122093F2023093F30240933C
:101EB000F4025093F5022091DC023091DD02032EF2
:101EC000000C440B550BC701B6010E947B12CA01DE
:101ED000B901A50194010E947B122093D80230938E
:101EE000D9024093DA025093DB028EEA91E00E941D
:101EF000D4046AEC71E08CE092E00E94E70440E0D8
:101F000050E0BA018CE092E00E94D7056BED71E0E1
:101F10008CE092E00E94E70440E050E06AE775E45C
:101F20008CE092E00E94D70580EE91E00E94D404FC
:101F300065EE71E08CE092E00E94E70440E050E042
:101F4000BA018CE092E00E94D7056BED71E08CE065
:101F500092E00E94E70440E050E06AE775E48CE01C
:101F600092E00E94D70580EE91E00E94D4040E9486
:101F70005807662777270C94E30FFC0188279927D9
:101F8000E89421912032E9F3293010F02E30C8F383
:101F90002B3241F02D3239F4689404C00E94DB0FDB
:101FA000820F911D219120532A30C0F31EF4909589
:101FB00081959F4F08957AE0979F902D879F802D60
:101FC000910D11240895B0E0A0E0E9EEFFE00C943B
:101FD000B3125C017B016115710519F0DB018D9372
:101FE0009C9385010F5F1F4FF501D0818D2F90E0ED
:101FF0000E9433116C01892BB9F5DD32B9F50F5F01
:102000001F4FD5011196DC91C1E05801F1E0AF1AE4
:10201000B10843E050E060E770E0C5010E943C1168
:10202000892B69F5680182E0C80ED11C45E050E0BB
:102030006BE670E0C6010E943C11892B21F4680117
:1020400097E0C90ED11CE114F10419F0D701CD922B
:10205000DC9260E070E080E89FEFC111FFC060E0BB
:1020600070E080E89FE7FAC05801BBCFDB3229F46B
:1020700085010E5F1F4FF501D181C0E0C6CF43E05F
:1020800050E068E670E0C5010E943C11892BE9F040
:10209000F80110E000E020E030E0A9015F01B0EDC0
:1020A0008B2E8D0E89E08815C8F19C2E689491F8CE
:1020B0008C2F8870C2FF16C0811102C00F5F1F4FA6
:1020C0003196D501DC91C92DE9CFE114F10429F055
:1020D0000E5F1F4FF7011183008360E070E080EC1A
:1020E0009FE7BCC0882311F001501109A5E0B0E0C2
:1020F0000E949A129B01AC01220F331F441F551FEF
:10210000280D311D411D511D283999E9390749070D
:1021100099E15907A8F2C6609C2ED2CFAEEF8A1281
:1021200006C0C3FD3CC09C2E689493F8C9CFDF7DE8
:10213000D534A9F580818D3239F4C061DF01129662
:10214000818162E070E006C0DF018B32C1F311963D
:1021500061E070E080535D01A61AB70A8A30F8F496
:10216000E0E8CE16ECE0DE065CF4B601660F771F01
:10217000660F771FC60ED71ECC0CDD1CC80ED11CF7
:102180005D01FFEFAF1ABF0A8C9180538A30A8F12E
:10219000C4FF03C0D194C194D1080C0D1D1DC1FF13
:1021A00009C0E114F10431F081E0A81AB108D701A7
:1021B000AD92BC92CA01B9010E945911C370C330DB
:1021C00009F490584B015C0120E030E0A9010E9425
:1021D0005411882309F440C0CFE9D0E017FF05C0AF
:1021E000119501951109C7E8D0E06E01B8E1CB1A4D
:1021F000D10880E2E82EF12C0FC0D501B1CFFE014D
:1022000025913591459154910E191F09C501B401CD
:102210000E94BA114B015C01D501C4010E151F05C6
:1022200074F72497F594E794CC16DD06A9F78A2F66
:10223000880F8B2F881F8F3F49F020E030E0A901E5
:10224000C501B4010E945411811106C082E290E0E0
:102250009093260380932503C501B401CDB7DEB763
:10226000ECE00C94CF1291110C942712803219F0EB
:1022700089508550C8F70895FB01DC01415050405A
:1022800088F08D9181341CF08B350CF4805E659163
:1022900061341CF06B350CF4605E861B611171F3C8
:1022A000990B0895881BFCCF0E94961108F481E0D9
:1022B0000895E89409C097FB3EF490958095709539
:1022C00061957F4F8F4F9F4F9923A9F0F92F96E982
:1022D000BB279395F695879577956795B795F111F7
:1022E000F8CFFAF4BB0F11F460FF1BC06F5F7F4F94
:1022F0008F4F9F4F16C0882311F096E911C07723A6
:1023000021F09EE8872F762F05C0662371F096E8AE
:10231000862F70E060E02AF09A95660F771F881F7D
:10232000DAF7880F9695879597F90895990F000821
:10233000550FAA0BE0E8FEEF16161706E807F90797
:10234000C0F012161306E407F50798F0621B730B32
:10235000840B950B39F40A2661F0232B242B252BB3
:1023600021F408950A2609F4A140A6958FEF811D56
:10237000811D08950E94CD110C9441120E943312C8
:1023800038F00E943A1220F0952311F00C942A1292
:102390000C94301211240C9475120E94521270F396
:1023A000959FC1F3950F50E0551F629FF001729FFA
:1023B000BB27F00DB11D639FAA27F00DB11DAA1F09
:1023C000649F6627B00DA11D661F829F2227B00D56
:1023D000A11D621F739FB00DA11D621F839FA00DE1
:1023E000611D221F749F3327A00D611D231F849F31
:1023F000600D211D822F762F6A2F11249F57504088
:102400009AF0F1F088234AF0EE0FFF1FBB1F661F02
:10241000771F881F91505040A9F79E3F510580F0CB
:102420000C942A120C9475125F3FE4F3983ED4F397
:10243000869577956795B795F795E7959F5FC1F76F
:10244000FE2B880F911D9695879597F908959927EA
:102450008827089597F99F6780E870E060E0089505
:102460009FEF80EC089500240A94161617061806AC
:102470000906089500240A94121613061406050688
:102480000895092E0394000C11F4882352F0BB0F19
:1024900040F4BF2B11F460FF04C06F5F7F4F8F4F7C
:1024A0009F4F089557FD9058440F551F59F05F3FB7
:1024B00071F04795880F97FB991F61F09F3F79F066
:1024C00087950895121613061406551FF2CF4695E8
:1024D000F1DF08C0161617061806991FF1CF86956A
:1024E0007105610508940895E894BB27662777274E
:1024F000CB0197F90895052E97FB1EF400940E94D6
:10250000921257FD07D00E94E41207FC03D04EF44C
:102510000C94921250954095309521953F4F4F4F16
:102520005F4F089590958095709561957F4F8F4F7F
:102530009F4F08950E940613A59F900DB49F900D84
:10254000A49F800D911D11240895B7FF0C949A1239
:102550000E949A12821B930B08952F923F924F92E2
:102560005F926F927F928F929F92AF92BF92CF9223
:10257000DF92EF92FF920F931F93CF93DF93CDB72C
:10258000DEB7CA1BDB0B0FB6F894DEBF0FBECDBFA4
:1025900009942A88398848885F846E847D848C8475
:1025A0009B84AA84B984C884DF80EE80FD800C817E
:1025B0001B81AA81B981CE0FD11D0FB6F894DEBF61
:1025C0000FBECDBFED010895A1E21A2EAA1BBB1BC1
:1025D000FD010DC0AA1FBB1FEE1FFF1FA217B307EF
:1025E000E407F50720F0A21BB30BE40BF50B661F05
:1025F000771F881F991F1A9469F7609570958095C9
:1026000090959B01AC01BD01CF010895A29FB0013F
:10261000B39FC001A39F700D811D1124911DB29F16
:10262000700D811D1124911D08955058BB27AA27B4
:102630000E942D130C9441120E94331238F00E9414
:102640003A1220F039F49F3F19F426F40C9430121A
:102650000EF4E095E7FB0C942A12E92F0E94521227
:1026600058F3BA17620773078407950720F079F4C7
:10267000A6F50C9474120EF4E0950B2EBA2FA02D33
:102680000B01B90190010C01CA01A0011124FF271F
:10269000591B99F0593F50F4503E68F11A16F0401A
:1026A000A22F232F342F4427585FF3CF4695379519
:1026B0002795A795F0405395C9F77EF41F16BA0BDE
:1026C000620B730B840BBAF09150A1F0FF0FBB1F8C
:1026D000661F771F881FC2F70EC0BA0F621F731FD5
:1026E000841F48F4879577956795B795F7959E3F32
:1026F00008F0B0CF9395880F08F09927EE0F9795C3
:10270000879508950E9496130C9441120E943A12E4
:1027100058F00E94331240F029F45F3F29F00C94E6
:102720002A1251110C9475120C9430120E945212FC
:1027300068F39923B1F3552391F3951B550BBB27F0
:10274000AA2762177307840738F09F5F5F4F220F35
:10275000331F441FAA1FA9F335D00E2E3AF0E0E82C
:1027600032D091505040E695001CCAF72BD0FE2F76
:1027700029D0660F771F881FBB1F2617370748070A
:10278000AB07B0E809F0BB0B802DBF01FF279358C2
:102790005F4F3AF09E3F510578F00C942A120C944A
:1027A00075125F3FE4F3983ED4F38695779567956D
:1027B000B795F7959F5FC9F7880F911D96958795F7
:1027C00097F90895E1E0660F771F881FBB1F621716
:1027D00073078407BA0720F0621B730B840BBA0BD4
:1027E000EE1F88F7E09508950E94FB136894B111DD
:1027F0000C94751208950E945A1288F09F5798F011
:10280000B92F9927B751B0F0E1F0660F771F881FF5
:10281000991F1AF0BA95C9F714C0B13091F00E940F
:102820007412B1E008950C947412672F782F8827E2
:10283000B85F39F0B93FCCF3869577956795B39536
:10284000D9F73EF490958095709561957F4F8F4FA5
:102850009F4F08950E94961108F48FEF08950E94EB
:102860009611880B990B0895991B79E004C0991F64
:10287000961708F0961B881F7A95C9F780950895DA
:1028800097FB072E16F4009407D077FD09D00E941D
:102890005A1407FC05D03EF4909581959F4F0895FA
:1028A000709561957F4F0895EE0FFF1F0590F4918D
:1028B000E02D0994AA1BBB1B51E107C0AA1FBB1F37
:1028C000A617B70710F0A61BB70B881F991F5A95BC
:1028D000A9F780959095BC01CD010895FC018191E7
:1028E000861721F08823D9F7992708953197CF01CA
:0628F0000895F894FFCFEB
:1028F60000000000C9012901560116028701650181
:1029060079010000000052072901DB02DA020D0AF4
:10291600006E616E00696E66006F766600706169B2
:102926006E74206F6E007061696E74206F6666004B
:10293600583D00202000593D004162736F6C75744C
:102946006520706F736974696F6E203A2058203D58
:10295600200020202D202059203D2000436F6D6D42
:10296600616E64206E6F74207265636F676E697A3C
:102976006564203A204D006F6B004552524F52203D
:102986002D206C696E65427566666572206F766588
:1029960072666C6F770057454C434F4D450050614A
:1029A600696E74626F7420616C69766520616E640D
:1029B600206B69636B696E672100582072616E67D0
:1029C600652069732066726F6D200020746F200089
:1029D600206D6D2E00592072616E67652069732027
:0629E60066726F6D200017
:00000001FF
